{
  "contractName": "BlogIndex",
  "abi": [
    {
      "constant": false,
      "inputs": [
        {
          "name": "hash",
          "type": "bytes"
        }
      ],
      "name": "addPost",
      "outputs": [],
      "payable": false,
      "stateMutability": "nonpayable",
      "type": "function"
    },
    {
      "constant": true,
      "inputs": [],
      "name": "isEmpty",
      "outputs": [
        {
          "name": "",
          "type": "bool"
        }
      ],
      "payable": false,
      "stateMutability": "view",
      "type": "function"
    },
    {
      "constant": true,
      "inputs": [
        {
          "name": "pos",
          "type": "uint256"
        }
      ],
      "name": "get",
      "outputs": [
        {
          "name": "post",
          "type": "bytes"
        }
      ],
      "payable": false,
      "stateMutability": "view",
      "type": "function"
    }
  ],
  "bytecode": "0x6060604052341561000f57600080fd5b61042a8061001e6000396000f300606060405260043610610057576000357c0100000000000000000000000000000000000000000000000000000000900463ffffffff168063681fe70c1461005c5780639507d39a14610089578063f84c714314610125575b600080fd5b341561006757600080fd5b61006f610182565b604051808215151515815260200191505060405180910390f35b341561009457600080fd5b6100aa6004808035906020019091905050610191565b6040518080602001828103825283818151815260200191508051906020019080838360005b838110156100ea5780820151818401526020810190506100cf565b50505050905090810190601f1680156101175780820380516001836020036101000a031916815260200191505b509250505060405180910390f35b341561013057600080fd5b610180600480803590602001908201803590602001908080601f01602080910402602001604051908101604052809392919081815260200183838082843782019150505050505091905050610266565b005b60008060008054905014905090565b6101996102a5565b816000805490501115156101ac57600080fd5b6000828154811015156101bb57fe5b90600052602060002090018054600181600116156101000203166002900480601f01602080910402602001604051908101604052809291908181526020018280546001816001161561010002031660029004801561025a5780601f1061022f5761010080835404028352916020019161025a565b820191906000526020600020905b81548152906001019060200180831161023d57829003601f168201915b50505050509050919050565b6000805480600101828161027a91906102b9565b9160005260206000209001600083909190915090805190602001906102a09291906102e5565b505050565b602060405190810160405280600081525090565b8154818355818115116102e0578183600052602060002091820191016102df9190610365565b5b505050565b828054600181600116156101000203166002900490600052602060002090601f016020900481019282601f1061032657805160ff1916838001178555610354565b82800160010185558215610354579182015b82811115610353578251825591602001919060010190610338565b5b5090506103619190610391565b5090565b61038e91905b8082111561038a576000818161038191906103b6565b5060010161036b565b5090565b90565b6103b391905b808211156103af576000816000905550600101610397565b5090565b90565b50805460018160011615610100020316600290046000825580601f106103dc57506103fb565b601f0160209004906000526020600020908101906103fa9190610391565b5b505600a165627a7a7230582099ad462df64d2d2f5632b1c38c358b5781ffef73428219d8427451cb877fcb8c0029",
  "source": "pragma solidity ^0.4.21;\n\ncontract BlogIndex {\n\n    bytes[] filesHashes;\n\n    function addPost(bytes hash) public {\n        filesHashes.push(hash);\n    }\n\n    function isEmpty () public constant returns (bool){\n        return filesHashes.length == 0;\n    }\n\n    function get(uint pos) public constant returns (bytes memory post){\n        require(filesHashes.length > pos);\n        post = filesHashes[pos];\n    }\n}",
  "sourcePath": "/Users/tillkolter/work/springer/dblog/contracts/BlogIndex.sol",
  "compiler": {
    "name": "solc",
    "version": "0.4.21+commit.dfe3193c.Emscripten.clang"
  },
  "schemaVersion": "2.0.0",
  "updatedAt": "2018-08-13T08:05:40.013Z"
}