{
  "contractName": "BlogIndex",
  "abi": [
    {
      "constant": false,
      "inputs": [
        {
          "name": "hash",
          "type": "bytes"
        }
      ],
      "name": "addPost",
      "outputs": [],
      "payable": false,
      "stateMutability": "nonpayable",
      "type": "function"
    },
    {
      "constant": true,
      "inputs": [],
      "name": "isEmpty",
      "outputs": [
        {
          "name": "",
          "type": "bool"
        }
      ],
      "payable": false,
      "stateMutability": "view",
      "type": "function"
    },
    {
      "constant": true,
      "inputs": [],
      "name": "getLength",
      "outputs": [
        {
          "name": "",
          "type": "uint256"
        }
      ],
      "payable": false,
      "stateMutability": "view",
      "type": "function"
    },
    {
      "constant": true,
      "inputs": [
        {
          "name": "pos",
          "type": "uint256"
        }
      ],
      "name": "get",
      "outputs": [
        {
          "name": "post",
          "type": "bytes"
        }
      ],
      "payable": false,
      "stateMutability": "view",
      "type": "function"
    }
  ],
  "bytecode": "0x608060405234801561001057600080fd5b506103cd806100206000396000f300608060405260043610610062576000357c0100000000000000000000000000000000000000000000000000000000900463ffffffff168063681fe70c146100675780639507d39a14610096578063be1c766b1461013c578063f84c714314610167575b600080fd5b34801561007357600080fd5b5061007c6101d0565b604051808215151515815260200191505060405180910390f35b3480156100a257600080fd5b506100c1600480360381019080803590602001909291905050506101df565b6040518080602001828103825283818151815260200191508051906020019080838360005b838110156101015780820151818401526020810190506100e6565b50505050905090810190601f16801561012e5780820380516001836020036101000a031916815260200191505b509250505060405180910390f35b34801561014857600080fd5b506101516102ae565b6040518082815260200191505060405180910390f35b34801561017357600080fd5b506101ce600480360381019080803590602001908201803590602001908080601f01602080910402602001604051908101604052809392919081815260200183838082843782019150505050505091929192905050506102ba565b005b60008060008054905014905090565b606081600080549050101515156101f557600080fd5b60008281548110151561020457fe5b906000526020600020018054600181600116156101000203166002900480601f0160208091040260200160405190810160405280929190818152602001828054600181600116156101000203166002900480156102a25780601f10610277576101008083540402835291602001916102a2565b820191906000526020600020905b81548152906001019060200180831161028557829003601f168201915b50505050509050919050565b60008080549050905090565b60008190806001815401808255809150509060018203906000526020600020016000909192909190915090805190602001906102f79291906102fc565b505050565b828054600181600116156101000203166002900490600052602060002090601f016020900481019282601f1061033d57805160ff191683800117855561036b565b8280016001018555821561036b579182015b8281111561036a57825182559160200191906001019061034f565b5b509050610378919061037c565b5090565b61039e91905b8082111561039a576000816000905550600101610382565b5090565b905600a165627a7a723058201d89bc2ce1d7bb10a53556bce3382e89f6fd4f349939bf23afd02e213a6687160029",
  "source": "pragma solidity ^0.4.23;\n\ncontract BlogIndex {\n\n    bytes[] filesHashes;\n\n    function addPost(bytes hash) public {\n        filesHashes.push(hash);\n    }\n\n    function isEmpty() public constant returns (bool){\n        return filesHashes.length == 0;\n    }\n\n    function getLength() public constant returns (uint) {\n        return filesHashes.length;\n    }\n\n    function get(uint pos) public constant returns (bytes memory post){\n        require(filesHashes.length >= pos);\n        post = filesHashes[pos];\n    }\n}",
  "sourcePath": "/Users/tkolter/work/springer/dblog/contracts/BlogIndex.sol",
  "compiler": {
    "name": "solc",
    "version": "0.4.24+commit.e67f0147.Emscripten.clang"
  },
  "schemaVersion": "2.0.1",
  "updatedAt": "2018-08-13T15:22:50.462Z"
}